{
  "contractName": "GvgBet",
  "abi": [
    {
      "constant": false,
      "inputs": [
        {
          "name": "_rate",
          "type": "uint256"
        }
      ],
      "name": "setRate",
      "outputs": [],
      "payable": false,
      "stateMutability": "nonpayable",
      "type": "function"
    },
    {
      "constant": true,
      "inputs": [],
      "name": "owner",
      "outputs": [
        {
          "name": "",
          "type": "address"
        }
      ],
      "payable": false,
      "stateMutability": "view",
      "type": "function"
    },
    {
      "constant": false,
      "inputs": [
        {
          "name": "_to",
          "type": "address"
        },
        {
          "name": "_amount",
          "type": "uint256"
        }
      ],
      "name": "transfer",
      "outputs": [],
      "payable": false,
      "stateMutability": "nonpayable",
      "type": "function"
    },
    {
      "constant": true,
      "inputs": [],
      "name": "myBalance",
      "outputs": [
        {
          "name": "balance",
          "type": "uint256"
        }
      ],
      "payable": false,
      "stateMutability": "view",
      "type": "function"
    },
    {
      "constant": false,
      "inputs": [
        {
          "name": "amount",
          "type": "uint256"
        }
      ],
      "name": "buy",
      "outputs": [],
      "payable": true,
      "stateMutability": "payable",
      "type": "function"
    },
    {
      "constant": false,
      "inputs": [
        {
          "name": "newOwner",
          "type": "address"
        }
      ],
      "name": "transferOwnership",
      "outputs": [],
      "payable": false,
      "stateMutability": "nonpayable",
      "type": "function"
    },
    {
      "constant": true,
      "inputs": [
        {
          "name": "_lookup",
          "type": "address"
        }
      ],
      "name": "getBalance",
      "outputs": [
        {
          "name": "balance",
          "type": "uint256"
        }
      ],
      "payable": false,
      "stateMutability": "view",
      "type": "function"
    },
    {
      "constant": false,
      "inputs": [],
      "name": "firstTimeOffer",
      "outputs": [],
      "payable": false,
      "stateMutability": "nonpayable",
      "type": "function"
    },
    {
      "anonymous": false,
      "inputs": [
        {
          "indexed": false,
          "name": "matchId",
          "type": "string"
        }
      ],
      "name": "GvgOver",
      "type": "event"
    },
    {
      "anonymous": false,
      "inputs": [
        {
          "indexed": false,
          "name": "matchId",
          "type": "string"
        }
      ],
      "name": "NewGvg",
      "type": "event"
    },
    {
      "anonymous": false,
      "inputs": [
        {
          "indexed": false,
          "name": "better",
          "type": "address"
        },
        {
          "indexed": false,
          "name": "amount",
          "type": "uint256"
        },
        {
          "indexed": false,
          "name": "matchId",
          "type": "string"
        },
        {
          "indexed": false,
          "name": "TeamId",
          "type": "string"
        }
      ],
      "name": "NewBet",
      "type": "event"
    },
    {
      "anonymous": false,
      "inputs": [
        {
          "indexed": true,
          "name": "winner",
          "type": "address"
        },
        {
          "indexed": false,
          "name": "matchId",
          "type": "string"
        }
      ],
      "name": "BetWon",
      "type": "event"
    },
    {
      "anonymous": false,
      "inputs": [
        {
          "indexed": true,
          "name": "loser",
          "type": "address"
        },
        {
          "indexed": false,
          "name": "matchId",
          "type": "string"
        }
      ],
      "name": "BetLost",
      "type": "event"
    },
    {
      "anonymous": false,
      "inputs": [
        {
          "indexed": false,
          "name": "_from",
          "type": "address"
        },
        {
          "indexed": false,
          "name": "_to",
          "type": "address"
        },
        {
          "indexed": false,
          "name": "amount",
          "type": "uint256"
        }
      ],
      "name": "Transfer",
      "type": "event"
    },
    {
      "anonymous": false,
      "inputs": [
        {
          "indexed": true,
          "name": "previousOwner",
          "type": "address"
        },
        {
          "indexed": true,
          "name": "newOwner",
          "type": "address"
        }
      ],
      "name": "OwnershipTransferred",
      "type": "event"
    },
    {
      "constant": false,
      "inputs": [
        {
          "name": "matchId",
          "type": "string"
        },
        {
          "name": "teamId",
          "type": "string"
        },
        {
          "name": "amount",
          "type": "uint256"
        }
      ],
      "name": "placeBet",
      "outputs": [],
      "payable": false,
      "stateMutability": "nonpayable",
      "type": "function"
    },
    {
      "constant": false,
      "inputs": [
        {
          "name": "matchId",
          "type": "string"
        },
        {
          "name": "winner",
          "type": "string"
        }
      ],
      "name": "closeBet",
      "outputs": [],
      "payable": false,
      "stateMutability": "nonpayable",
      "type": "function"
    },
    {
      "constant": false,
      "inputs": [
        {
          "name": "gvgId",
          "type": "string"
        },
        {
          "name": "teamAId",
          "type": "string"
        },
        {
          "name": "teamAName",
          "type": "string"
        },
        {
          "name": "teamBId",
          "type": "string"
        },
        {
          "name": "teamBName",
          "type": "string"
        },
        {
          "name": "startTime",
          "type": "string"
        }
      ],
      "name": "createBet",
      "outputs": [],
      "payable": false,
      "stateMutability": "nonpayable",
      "type": "function"
    },
    {
      "constant": false,
      "inputs": [
        {
          "name": "amount",
          "type": "uint256"
        }
      ],
      "name": "setTax",
      "outputs": [],
      "payable": false,
      "stateMutability": "nonpayable",
      "type": "function"
    }
  ],
  "bytecode": "0x60806040526040805190810160405280600381526020017f414b4200000000000000000000000000000000000000000000000000000000008152506001908051906020019062000051929190620000ba565b5064174876e80060025560126003556001600455606460055560006006556001600855336000806101000a81548173ffffffffffffffffffffffffffffffffffffffff021916908373ffffffffffffffffffffffffffffffffffffffff16021790555062000169565b828054600181600116156101000203166002900490600052602060002090601f016020900481019282601f10620000fd57805160ff19168380011785556200012e565b828001600101855582156200012e579182015b828111156200012d57825182559160200191906001019062000110565b5b5090506200013d919062000141565b5090565b6200016691905b808211156200016257600081600090555060010162000148565b5090565b90565b61259a80620001796000396000f3006080604052600436106100ba576000357c0100000000000000000000000000000000000000000000000000000000900463ffffffff168063051313ab146100bf5780632e5bb6ff1461011c57806334fcf437146101495780638da5cb5b14610176578063963c3f3d146101cd578063a9059cbb14610394578063c9116b69146103e1578063d96a094a1461040c578063efb07d361461042c578063f2fde38b146104db578063f8b2cb4f1461051e578063fc1047cb14610575575b600080fd5b3480156100cb57600080fd5b5061011a6004803603810190808035906020019082018035906020019190919293919293908035906020019082018035906020019190919293919293908035906020019092919050505061058c565b005b34801561012857600080fd5b5061014760048036038101908080359060200190929190505050610d52565b005b34801561015557600080fd5b5061017460048036038101908080359060200190929190505050610db7565b005b34801561018257600080fd5b5061018b610e1c565b604051808273ffffffffffffffffffffffffffffffffffffffff1673ffffffffffffffffffffffffffffffffffffffff16815260200191505060405180910390f35b3480156101d957600080fd5b50610392600480360381019080803590602001908201803590602001908080601f0160208091040260200160405190810160405280939291908181526020018383808284378201915050505050509192919290803590602001908201803590602001908080601f0160208091040260200160405190810160405280939291908181526020018383808284378201915050505050509192919290803590602001908201803590602001908080601f0160208091040260200160405190810160405280939291908181526020018383808284378201915050505050509192919290803590602001908201803590602001908080601f0160208091040260200160405190810160405280939291908181526020018383808284378201915050505050509192919290803590602001908201803590602001908080601f0160208091040260200160405190810160405280939291908181526020018383808284378201915050505050509192919290803590602001908201803590602001908080601f0160208091040260200160405190810160405280939291908181526020018383808284378201915050505050509192919290505050610e41565b005b3480156103a057600080fd5b506103df600480360381019080803573ffffffffffffffffffffffffffffffffffffffff1690602001909291908035906020019092919050505061132b565b005b3480156103ed57600080fd5b506103f6611388565b6040518082815260200191505060405180910390f35b61042a600480360381019080803590602001909291905050506113cf565b005b34801561043857600080fd5b506104d9600480360381019080803590602001908201803590602001908080601f0160208091040260200160405190810160405280939291908181526020018383808284378201915050505050509192919290803590602001908201803590602001908080601f0160208091040260200160405190810160405280939291908181526020018383808284378201915050505050509192919290505050611460565b005b3480156104e757600080fd5b5061051c600480360381019080803573ffffffffffffffffffffffffffffffffffffffff169060200190929190505050611963565b005b34801561052a57600080fd5b5061055f600480360381019080803573ffffffffffffffffffffffffffffffffffffffff169060200190929190505050611ab8565b6040518082815260200191505060405180910390f35b34801561058157600080fd5b5061058a611b01565b005b600080600060098888604051808383808284378201915050925050509081526020016040518091039020925060098888604051808383808284378201915050925050509081526020016040518091039020600101600001915060098888604051808383808284378201915050925050509081526020016040518091039020600301600001905085856040518083838082843782019150509250505060405180910390206000191682604051808280546001816001161561010002031660029004801561068f5780601f1061066d57610100808354040283529182019161068f565b820191906000526020600020905b81548152906001019060200180831161067b575b5050915050604051809103902060001916148061073757508585604051808383808284378201915050925050506040518091039020600019168160405180828054600181600116156101000203166002900480156107245780601f10610702576101008083540402835291820191610724565b820191906000526020600020905b815481529060010190602001808311610710575b5050915050604051809103902060001916145b151561074257600080fd5b60008411151561075157600080fd5b6008548401600760003373ffffffffffffffffffffffffffffffffffffffff1673ffffffffffffffffffffffffffffffffffffffff16815260200190815260200160002054101515156107a357600080fd5b6107b130600854860161132b565b85856040518083838082843782019150509250505060405180910390206000191682604051808280546001816001161561010002031660029004801561082e5780601f1061080c57610100808354040283529182019161082e565b820191906000526020600020905b81548152906001019060200180831161081a575b50509150506040518091039020600019161415610a7e5760008484600d0160003373ffffffffffffffffffffffffffffffffffffffff1673ffffffffffffffffffffffffffffffffffffffff16815260200190815260200160002054031415156108fb5782600b013390806001815401808255809150509060018203906000526020600020016000909192909190916101000a81548173ffffffffffffffffffffffffffffffffffffffff021916908373ffffffffffffffffffffffffffffffffffffffff160217905550505b8383600d0160003373ffffffffffffffffffffffffffffffffffffffff1673ffffffffffffffffffffffffffffffffffffffff168152602001908152602001600020600082825401925050819055508383600901600082825401925050819055507f16e1fdc9d0e1fea51ca23be0596b9a3915e8f9900090e4195369d6ca1bd6b12a33858a8a87600101600001604051808673ffffffffffffffffffffffffffffffffffffffff1673ffffffffffffffffffffffffffffffffffffffff168152602001858152602001806020018060200183810383528686828181526020019250808284378201915050838103825284818154600181600116156101000203166002900481526020019150805460018160011615610100020316600290048015610a665780601f10610a3b57610100808354040283529160200191610a66565b820191906000526020600020905b815481529060010190602001808311610a4957829003601f168201915b505097505050505050505060405180910390a1610d48565b806040518082805460018160011615610100020316600290048015610ada5780601f10610ab8576101008083540402835291820191610ada565b820191906000526020600020905b815481529060010190602001808311610ac6575b50509150506040518091039020600019168686604051808383808284378201915050925050506040518091039020600019161415610d475760008484600e0160003373ffffffffffffffffffffffffffffffffffffffff1673ffffffffffffffffffffffffffffffffffffffff1681526020019081526020016000205403141515610bc85782600c013390806001815401808255809150509060018203906000526020600020016000909192909190916101000a81548173ffffffffffffffffffffffffffffffffffffffff021916908373ffffffffffffffffffffffffffffffffffffffff160217905550505b8383600e0160003373ffffffffffffffffffffffffffffffffffffffff1673ffffffffffffffffffffffffffffffffffffffff168152602001908152602001600020600082825401925050819055508383600a01600082825401925050819055507f16e1fdc9d0e1fea51ca23be0596b9a3915e8f9900090e4195369d6ca1bd6b12a33858a8a87600301600001604051808673ffffffffffffffffffffffffffffffffffffffff1673ffffffffffffffffffffffffffffffffffffffff168152602001858152602001806020018060200183810383528686828181526020019250808284378201915050838103825284818154600181600116156101000203166002900481526020019150805460018160011615610100020316600290048015610d335780601f10610d0857610100808354040283529160200191610d33565b820191906000526020600020905b815481529060010190602001808311610d1657829003601f168201915b505097505050505050505060405180910390a15b5b5050505050505050565b6000809054906101000a900473ffffffffffffffffffffffffffffffffffffffff1673ffffffffffffffffffffffffffffffffffffffff163373ffffffffffffffffffffffffffffffffffffffff16141515610dad57600080fd5b8060088190555050565b6000809054906101000a900473ffffffffffffffffffffffffffffffffffffffff1673ffffffffffffffffffffffffffffffffffffffff163373ffffffffffffffffffffffffffffffffffffffff16141515610e1257600080fd5b8060048190555050565b6000809054906101000a900473ffffffffffffffffffffffffffffffffffffffff1681565b6000809054906101000a900473ffffffffffffffffffffffffffffffffffffffff1673ffffffffffffffffffffffffffffffffffffffff163373ffffffffffffffffffffffffffffffffffffffff16141515610e9c57600080fd5b856040518082805190602001908083835b602083101515610ed25780518252602082019150602081019050602083039250610ead565b6001836020036101000a0380198251168184511680821785525050505050509050019150506040518091039020600019166009876040518082805190602001908083835b602083101515610f3b5780518252602082019150602081019050602083039250610f16565b6001836020036101000a03801982511681845116808217855250505050505090500191505090815260200160405180910390206000016040518082805460018160011615610100020316600290048015610fcc5780601f10610faa576101008083540402835291820191610fcc565b820191906000526020600020905b815481529060010190602001808311610fb8575b505091505060405180910390206000191614151515610fea57600080fd5b610140604051908101604052808781526020016040805190810160405280888152602001878152508152602001604080519081016040528086815260200185815250815260200182815260200160001515815260200160408051908101604052806040805190810160405280600781526020017f756e6b776f776e0000000000000000000000000000000000000000000000000081525081526020016040805190810160405280600781526020017f756e6b776f776e000000000000000000000000000000000000000000000000008152508152508152602001600081526020016000815260200160006040519080825280602002602001820160405280156111025781602001602082028038833980820191505090505b50815260200160006040519080825280602002602001820160405280156111385781602001602082028038833980820191505090505b508152506009876040518082805190602001908083835b602083101515611174578051825260208201915060208101905060208303925061114f565b6001836020036101000a038019825116818451168082178552505050505050905001915050908152602001604051809103902060008201518160000190805190602001906111c3929190612375565b5060208201518160010160008201518160000190805190602001906111e9929190612375565b506020820151816001019080519060200190611206929190612375565b505050604082015181600301600082015181600001908051906020019061122e929190612375565b50602082015181600101908051906020019061124b929190612375565b505050606082015181600501908051906020019061126a929190612375565b5060808201518160060160006101000a81548160ff02191690831515021790555060a08201518160070160008201518160000190805190602001906112b0929190612375565b5060208201518160010190805190602001906112cd929190612375565b50505060c0820151816009015560e082015181600a015561010082015181600b0190805190602001906113019291906123f5565b5061012082015181600c01908051906020019061131f9291906123f5565b50905050505050505050565b80600760003373ffffffffffffffffffffffffffffffffffffffff1673ffffffffffffffffffffffffffffffffffffffff168152602001908152602001600020541015151561137957600080fd5b611384338383611bbb565b5050565b6000600760003373ffffffffffffffffffffffffffffffffffffffff1673ffffffffffffffffffffffffffffffffffffffff16815260200190815260200160002054905090565b600454600554828115156113df57fe5b0402341415156113ee57600080fd5b60025460065410151561140057600080fd5b80600760003373ffffffffffffffffffffffffffffffffffffffff1673ffffffffffffffffffffffffffffffffffffffff168152602001908152602001600020600082825401925050819055508060066000828254019250508190555050565b60008060008060008060009054906101000a900473ffffffffffffffffffffffffffffffffffffffff1673ffffffffffffffffffffffffffffffffffffffff163373ffffffffffffffffffffffffffffffffffffffff161415156114c357600080fd5b6009876040518082805190602001908083835b6020831015156114fb57805182526020820191506020810190506020830392506114d6565b6001836020036101000a03801982511681845116808217855250505050505090500191505090815260200160405180910390209450600015158560060160009054906101000a900460ff16151514151561155457600080fd5b6009876040518082805190602001908083835b60208310151561158c5780518252602082019150602081019050602083039250611567565b6001836020036101000a038019825116818451168082178552505050505050905001915050908152602001604051809103902060010160000193506009876040518082805190602001908083835b6020831015156115ff57805182526020820191506020810190506020830392506115da565b6001836020036101000a038019825116818451168082178552505050505050905001915050908152602001604051809103902060030160000192508360405180828054600181600116156101000203166002900480156116965780601f10611674576101008083540402835291820191611696565b820191906000526020600020905b815481529060010190602001808311611682575b5050915050604051809103902060001916866040518082805190602001908083835b6020831015156116dd57805182526020820191506020810190506020830392506116b8565b6001836020036101000a038019825116818451168082178552505050505050905001915050604051809103902060001916141561177c5784600101915081856007016000820181600001908054600181600116156101000203166002900461174692919061247f565b506001820181600101908054600181600116156101000203166002900461176e92919061247f565b5090505061177b87611cf9565b5b8260405180828054600181600116156101000203166002900480156117d85780601f106117b65761010080835404028352918201916117d8565b820191906000526020600020905b8154815290600101906020018083116117c4575b5050915050604051809103902060001916866040518082805190602001908083835b60208310151561181f57805182526020820191506020810190506020830392506117fa565b6001836020036101000a03801982511681845116808217855250505050505090500191505060405180910390206000191614156118be5784600301905080856007016000820181600001908054600181600116156101000203166002900461188892919061247f565b50600182018160010190805460018160011615610100020316600290046118b092919061247f565b509050506118bd87612037565b5b7fea632d77450fe533db77e3f36ee9a9b67662a3731e2792655791374b3b7c9b3c876040518080602001828103825283818151815260200191508051906020019080838360005b83811015611920578082015181840152602081019050611905565b50505050905090810190601f16801561194d5780820380516001836020036101000a031916815260200191505b509250505060405180910390a150505050505050565b6000809054906101000a900473ffffffffffffffffffffffffffffffffffffffff1673ffffffffffffffffffffffffffffffffffffffff163373ffffffffffffffffffffffffffffffffffffffff161415156119be57600080fd5b600073ffffffffffffffffffffffffffffffffffffffff168173ffffffffffffffffffffffffffffffffffffffff16141515156119fa57600080fd5b8073ffffffffffffffffffffffffffffffffffffffff166000809054906101000a900473ffffffffffffffffffffffffffffffffffffffff1673ffffffffffffffffffffffffffffffffffffffff167f8be0079c531659141344cd1fd0a4f28419497f9722a3daafe3b4186f6b6457e060405160405180910390a3806000806101000a81548173ffffffffffffffffffffffffffffffffffffffff021916908373ffffffffffffffffffffffffffffffffffffffff16021790555050565b6000600760008373ffffffffffffffffffffffffffffffffffffffff1673ffffffffffffffffffffffffffffffffffffffff168152602001908152602001600020549050919050565b6000600760003373ffffffffffffffffffffffffffffffffffffffff1673ffffffffffffffffffffffffffffffffffffffff16815260200190815260200160002054141515611b4f57600080fd5b600254600654101515611b6157600080fd5b6103e8600760003373ffffffffffffffffffffffffffffffffffffffff1673ffffffffffffffffffffffffffffffffffffffff168152602001908152602001600020819055506103e8600660008282540192505081905550565b80600760008573ffffffffffffffffffffffffffffffffffffffff1673ffffffffffffffffffffffffffffffffffffffff1681526020019081526020016000206000828254039250508190555080600760008473ffffffffffffffffffffffffffffffffffffffff1673ffffffffffffffffffffffffffffffffffffffff168152602001908152602001600020600082825401925050819055507fddf252ad1be2c89b69c2b068fc378daa952ba7f163c4a11628f55a4df523b3ef838383604051808473ffffffffffffffffffffffffffffffffffffffff1673ffffffffffffffffffffffffffffffffffffffff1681526020018373ffffffffffffffffffffffffffffffffffffffff1673ffffffffffffffffffffffffffffffffffffffff168152602001828152602001935050505060405180910390a1505050565b600080600080600080600080600060098a6040518082805190602001908083835b602083101515611d3f5780518252602082019150602081019050602083039250611d1a565b6001836020036101000a0380198251168184511680821785525050505050509050019150509081526020016040518091039020985088600b01805490509750600096505b87871015611efc5788600b0187815481101515611d9c57fe5b9060005260206000200160009054906101000a900473ffffffffffffffffffffffffffffffffffffffff16955088600d0160008773ffffffffffffffffffffffffffffffffffffffff1673ffffffffffffffffffffffffffffffffffffffff168152602001908152602001600020549450886009015485811515611e1c57fe5b0493508389600a0154811515611e2e57fe5b049250611e3c308785611bbb565b8573ffffffffffffffffffffffffffffffffffffffff167fbdb8b227b2c092a02b23c809802302df0913c332ccf663b26a90f534621a0b508b6040518080602001828103825283818151815260200191508051906020019080838360005b83811015611eb5578082015181840152602081019050611e9a565b50505050905090810190601f168015611ee25780820380516001836020036101000a031916815260200191505b509250505060405180910390a28680600101975050611d83565b88600c01805490509150600090505b8181101561200e5788600c0181815481101515611f2457fe5b9060005260206000200160009054906101000a900473ffffffffffffffffffffffffffffffffffffffff1673ffffffffffffffffffffffffffffffffffffffff167f9aac95b6094d88392d182f29c565a1408c7d137d1ce394d0dd29a0ef65055fb98b6040518080602001828103825283818151815260200191508051906020019080838360005b83811015611fc7578082015181840152602081019050611fac565b50505050905090810190601f168015611ff45780820380516001836020036101000a031916815260200191505b509250505060405180910390a28080600101915050611f0b565b60018960060160006101000a81548160ff02191690831515021790555050505050505050505050565b600080600080600080600080600060098a6040518082805190602001908083835b60208310151561207d5780518252602082019150602081019050602083039250612058565b6001836020036101000a0380198251168184511680821785525050505050509050019150509081526020016040518091039020985088600c01805490509750600096505b8787101561223a5788600b01878154811015156120da57fe5b9060005260206000200160009054906101000a900473ffffffffffffffffffffffffffffffffffffffff16955088600e0160008773ffffffffffffffffffffffffffffffffffffffff1673ffffffffffffffffffffffffffffffffffffffff16815260200190815260200160002054945088600a01548581151561215a57fe5b04935083896009015481151561216c57fe5b04925061217a308785611bbb565b8573ffffffffffffffffffffffffffffffffffffffff167fbdb8b227b2c092a02b23c809802302df0913c332ccf663b26a90f534621a0b508b6040518080602001828103825283818151815260200191508051906020019080838360005b838110156121f35780820151818401526020810190506121d8565b50505050905090810190601f1680156122205780820380516001836020036101000a031916815260200191505b509250505060405180910390a286806001019750506120c1565b88600b01805490509150600090505b8181101561234c5788600b018181548110151561226257fe5b9060005260206000200160009054906101000a900473ffffffffffffffffffffffffffffffffffffffff1673ffffffffffffffffffffffffffffffffffffffff167f9aac95b6094d88392d182f29c565a1408c7d137d1ce394d0dd29a0ef65055fb98b6040518080602001828103825283818151815260200191508051906020019080838360005b838110156123055780820151818401526020810190506122ea565b50505050905090810190601f1680156123325780820380516001836020036101000a031916815260200191505b509250505060405180910390a28080600101915050612249565b60018960060160006101000a81548160ff02191690831515021790555050505050505050505050565b828054600181600116156101000203166002900490600052602060002090601f016020900481019282601f106123b657805160ff19168380011785556123e4565b828001600101855582156123e4579182015b828111156123e35782518255916020019190600101906123c8565b5b5090506123f19190612506565b5090565b82805482825590600052602060002090810192821561246e579160200282015b8281111561246d5782518260006101000a81548173ffffffffffffffffffffffffffffffffffffffff021916908373ffffffffffffffffffffffffffffffffffffffff16021790555091602001919060010190612415565b5b50905061247b919061252b565b5090565b828054600181600116156101000203166002900490600052602060002090601f016020900481019282601f106124b857805485556124f5565b828001600101855582156124f557600052602060002091601f016020900482015b828111156124f45782548255916001019190600101906124d9565b5b5090506125029190612506565b5090565b61252891905b8082111561252457600081600090555060010161250c565b5090565b90565b61256b91905b8082111561256757600081816101000a81549073ffffffffffffffffffffffffffffffffffffffff021916905550600101612531565b5090565b905600a165627a7a7230582056f236933878a216bab08c0f907dc2d6d8b01c64724eb662cc5dc94dd02775080029",
  "source": "pragma solidity ^0.4.19;\nimport \"./Ownable.sol\";\n\ncontract AKB is Ownable {\n\n  string symbol = \"AKB\";\n  uint limit = 100000000000;\n  uint decimals = 18;\n  uint rate = 1 wei;\n  uint ratedVolume = 100;\n  uint currentSupply = 0;\n\n  mapping (address => uint) ownerToBalance;\n  event Transfer (address _from, address _to, uint amount);\n\n  function getBalance(address _lookup) public view returns (uint balance) {\n      return ownerToBalance[_lookup];\n  }\n\n  function myBalance() public view returns (uint balance) {\n    return ownerToBalance[msg.sender];\n  }\n\n  function _transfer(address _from, address _to, uint amount) internal {\n    ownerToBalance[_from] -= amount;\n    ownerToBalance[_to] += amount;\n    emit Transfer(_from, _to, amount);\n  }\n\n  function transfer(address _to, uint _amount) public {\n    require(ownerToBalance[msg.sender] >= _amount);\n    _transfer(msg.sender, _to, _amount);\n  }\n\n  function setRate(uint _rate) external onlyOwner {\n    rate = _rate;\n  }\n\n  function buy(uint amount) public payable {\n    require(msg.value == ((amount/ratedVolume)*rate));\n    require(currentSupply < limit);\n    ownerToBalance[msg.sender] += amount;\n    currentSupply += amount;\n  }\n\n  function firstTimeOffer() public {\n    require(ownerToBalance[msg.sender] == 0);\n    require(currentSupply < limit);\n    ownerToBalance[msg.sender] = 1000;\n    currentSupply += 1000;\n  }\n}\n\ncontract GvgBet is Ownable, AKB {\n\n  uint _tax = 1;\n\n  struct Team {\n    string id;\n    string name;\n  }\n\n  struct MatchDetails {\n    string matchId;\n    Team teamA;\n    Team teamB;\n    string startTime;\n    bool isOver;\n    Team won;\n    uint poolTeamA;\n    uint poolTeamB;\n    address[] bettersTeamA;\n    address[] bettersTeamB;\n    mapping (address => uint) betsTeamA;\n    mapping (address => uint) betsTeamB;\n  }\n\n  mapping (string => MatchDetails) bets;\n\n  event GvgOver(string matchId);\n  event NewGvg(string matchId);\n  event NewBet(address better, uint amount, string matchId, string TeamId);\n  event BetWon(address indexed winner, string matchId);\n  event BetLost(address indexed loser, string matchId);\n\n  function placeBet (string matchId, string teamId, uint amount) external {\n    MatchDetails storage gvg = bets[matchId];\n    string storage teamAId = bets[matchId].teamA.id;\n    string storage teamBId = bets[matchId].teamB.id;\n    require( keccak256(bytes(teamAId)) == keccak256(bytes(teamId)) || keccak256(bytes(teamBId)) == keccak256(bytes(teamId)) );\n    require( amount > 0 );\n    require( ownerToBalance[msg.sender] >= amount + _tax);\n    transfer(address(this), uint(amount + _tax));\n    if (keccak256(bytes(teamAId)) == keccak256(bytes(teamId))) {\n      if (gvg.betsTeamA[msg.sender] - amount != 0) {\n        gvg.bettersTeamA.push(msg.sender);\n      }\n      gvg.betsTeamA[msg.sender] += amount;\n      gvg.poolTeamA += amount;\n      emit NewBet(msg.sender, amount, matchId, gvg.teamA.id);\n    } else if (keccak256(bytes(teamId)) == keccak256(bytes(teamBId)) ) {\n      if (gvg.betsTeamB[msg.sender] - amount != 0) {\n        gvg.bettersTeamB.push(msg.sender);\n      }\n      gvg.betsTeamB[msg.sender] += amount;\n      gvg.poolTeamB += amount;\n      emit NewBet(msg.sender, amount, matchId, gvg.teamB.id);\n    }\n\n  }\n\n  function _settleBetAWon(string matchId) private {\n    MatchDetails storage gvg = bets[matchId];\n\n    uint arrayLengthA = gvg.bettersTeamA.length;\n    for (uint i=0; i<arrayLengthA; i++) {\n      address _address = gvg.bettersTeamA[i];\n      uint _amount = gvg.betsTeamA[_address];\n      uint _share = _amount / gvg.poolTeamA;\n      uint _winnings = gvg.poolTeamB / _share;\n\n      _transfer(address(this), _address, _winnings);\n      emit BetWon(_address, matchId);\n    }\n\n    uint arrayLengthB = gvg.bettersTeamB.length;\n    for (uint j=0; j < arrayLengthB; j++) {\n      emit BetLost(gvg.bettersTeamB[j], matchId);\n    }\n\n\n    gvg.isOver = true;\n  }\n\n  function _settleBetBWon(string matchId) private {\n    MatchDetails storage gvg = bets[matchId];\n\n    uint arrayLengthB = gvg.bettersTeamB.length;\n    for (uint i=0; i<arrayLengthB; i++) {\n      address _address = gvg.bettersTeamA[i];\n      uint _amount = gvg.betsTeamB[_address];\n      uint _share = _amount / gvg.poolTeamB;\n      uint _winnings = gvg.poolTeamA / _share;\n\n      _transfer(address(this), _address, _winnings);\n      emit BetWon(_address, matchId);\n    }\n\n    uint arrayLengthA = gvg.bettersTeamA.length;\n    for (uint j=0; j < arrayLengthA; j++) {\n      emit BetLost(gvg.bettersTeamA[j], matchId);\n    }\n\n    gvg.isOver = true;\n  }\n\n  function closeBet (string matchId, string winner) public onlyOwner {\n      MatchDetails storage gvg = bets[matchId];\n      require(gvg.isOver == false);\n      string storage teamAId = bets[matchId].teamA.id;\n      string storage teamBId = bets[matchId].teamB.id;\n\n      if (keccak256(bytes(winner)) == keccak256(bytes(teamAId))) {\n        Team storage wonA = gvg.teamA;\n        gvg.won = wonA;\n        _settleBetAWon(matchId);\n      }\n      if (keccak256(bytes(winner)) == keccak256(bytes(teamBId))) {\n        Team storage wonB = gvg.teamB;\n        gvg.won = wonB;\n        _settleBetBWon(matchId);\n      }\n\n      emit GvgOver(matchId);\n  }\n\n  function createBet (\n    string gvgId,\n    string teamAId,\n    string teamAName,\n    string teamBId,\n    string teamBName,\n    string startTime\n  ) public onlyOwner {\n    require(keccak256(bytes(bets[gvgId].matchId)) != keccak256(bytes(gvgId)));\n\n    bets[gvgId] = MatchDetails(\n      gvgId,\n      Team(\n          teamAId,\n          teamAName\n      ),\n      Team(\n        teamBId,\n        teamBName\n      ),\n      startTime,\n      false,\n      Team(\"unkwown\", \"unkwown\"),\n      0,\n      0,\n      new address[](0),\n      new address[](0)\n    );\n  }\n\n  function setTax (uint amount) public onlyOwner {\n    _tax = amount;\n  }\n\n}\n",
  "sourcePath": "/Users/j/albion_bookie/ethereum/contracts/gvgBet.sol",
  "compiler": {
    "name": "solc",
    "version": "0.4.24+commit.e67f0147.Emscripten.clang"
  },
  "schemaVersion": "2.0.0",
  "updatedAt": "2018-05-30T18:48:43.017Z"
}